:10000000020058898288838B00EC4D6036E4E0F66C
:1000100008A31DBDFFF31C80F0B800118B00EC4D50
:100020006021E7F609081DBDFFF41C80F189828874
:10003000838B00EC4D600CE493F608A31DBDFFF329
:100040001C80F022E4F5D075813478207A14F6080B
:0B005000DAFC12011002000002004464
:1001000030313233343536373839432B2D2A3D2FB1
:10011000020448E4F520F521E4F522F5237801797D
:10012000007A007B247D107C00120019E523B410B6
:1001300007E522B400028002801775B08075900335
:1001400075900275B001759001759000E4F522F587
:100150002375A007E5802402700C8000E52145206E
:100160007004800080048000801A792B87B075901D
:10017000037590020521E521700205200523E52382
:1001800070020522E5802403700C8000E5214520E3
:100190007004800080048000801A792887B07590F0
:1001A000037590020521E521700205200523E52352
:1001B00070020522E5802405700C8000E5214520B1
:1001C0007004800080048000801A792587B07590C3
:1001D000037590020521E521700205200523E52322
:1001E00070020522E580B4F70E75B00175900175B7
:1001F0009000E4F522F52375A00BE5802402700C35
:100200008000E52145207004800080048000801A71
:10021000792C87B07590037590020521E521700255
:1002200005200523E52370020522E5802403700CD8
:100230008000E52145207004800080048000801A41
:10024000792987B07590037590020521E521700228
:1002500005200523E52370020522E5802405700CA6
:100260008000E52145207004800080048000801A11
:10027000792687B07590037590020521E5217002FB
:1002800005200523E52370020522E5802409700C72
:100290008000E521452070048000800480008019E2
:1002A0008524B07590037590020521E52170020543
:1002B000200523E5237002052275A00DE5802402A8
:1002C000700C8000E52145207004800080048000CF
:1002D000801A792D87B07590037590020521E5216C
:1002E000700205200523E52370020522E580240322
:1002F000700C8000E521452070048000800480009F
:10030000801A792A87B07590037590020521E5213E
:10031000700205200523E52370020522E5802405EF
:10032000700C8000E521452070048000800480006E
:10033000801A792787B07590037590020521E52111
:10034000700205200523E52370020522E5802409BB
:10035000700C8000E521452070048000800480003E
:10036000801A793287B07590037590020521E521D6
:10037000700205200523E5237002052275A00EE515
:10038000802402700C8000E52145207004800080EC
:10039000048000801A792F87B0759003759002054C
:1003A00021E521700205200523E52370020522E5E1
:1003B000802403700C8000E52145207004800080BB
:1003C000048000801A793087B0759003759002051B
:1003D00021E521700205200523E52370020522E5B1
:1003E000802405700C8000E5214520700480008089
:1003F000048000801A793187B075900375900205EA
:1004000021E521700205200523E52370020522E580
:10041000802409700C8000E5214520700480008054
:10042000048000801A793387B075900375900205B7
:1004300021E521700205200523E52370020522E451
:0B044000F520F52102012C220201131F
:00000001FF
